:02000000B12825
:100008007E14803120007F08F4002700931E5B28AF
:10001800F501F601200095010B11210095121B280E
:100028000B1D1B280130F5070030F63D0B11200091
:100038008C1A252800307602C83003197502031C73
:100048001428210095160B11200095010030760226
:10005800C83003197502031C35284721D821F5013A
:10006800F60120008C1A5928F501F60195010B11AB
:100078002100951220008C1A54280B1D48280130A5
:10008800F5070030F63D0B1103307602E83003190E
:100098007502031C3E284721D821F501F6013E28A8
:1000A800210095160B112000950127009312131EAD
:1000B800AC28F701F801200095010B1121009512D9
:1000C8006C280B1D6C280130F7070030F83D0B1128
:1000D80020000C1A762800307802C83003197702FD
:1000E800031C6528210095160B112000950100308E
:1000F8007802C83003197702031C86287921D82191
:10010800F701F80120000C1AAA28F701F801950157
:100118000B112100951220000C1AA5280B1D9928F7
:100128000130F7070030F83D0B1103307802E83052
:1001380003197702031C8F287921D821F701F801C8
:100148008F28210095160B11200095012700131206
:1001580074082000FF007E100900B228B701B8011A
:10016800B901BA01BB01BC01BD017E102000592AAA
:1001780000302000AC000030AB000030AA00003096
:10018800A900230822042104200403190629AD012B
:10019800AD0AA31BDB280130A035A10DA20DA30DCC
:1001A800890BD0280130A8002808AD07CD280130D8
:1001B800A935AA0DAB0DAC0D890BDC282308270245
:1001C800031DF02822082602031DF0282108250215
:1001D800031DF02820082402031CFB282008A40281
:1001E8002108A53B2208A63B2308A73B2914013078
:1001F800A336A20CA10CA00C890BFC280130AD027F
:10020800031DDB282C08A3002B08A2002A08A10044
:100218002908A00008000730342220002008A60082
:100228002108A7000530A736A60C890B1729260830
:10023800A8002708A90029083C06031D2529280825
:100248003B06031908002908BC002808BB003C0825
:10025800BA003B08B9003C08803AA6008030260264
:10026800031D38290B303B02031C422920003B08A0
:10027800F63EB700FF303C3DB80045292000B701E5
:10028800B801A921080020003C08803AF00080301D
:100298007002031D51291F303B02031859290130F0
:1002A8002000BB070030BC3D5E291F302000BB008A
:1002B8000030BC003C08BA003B08B9003C08803A52
:1002C800F00080307002031D6B290B303B02031CC9
:1002D800752920003B08F63EB700FF303C3DB800CA
:1002E80008002000B701B801080020003C08803A47
:1002F800F00080307002031D832901303B02031C8B
:100308008B29FF302000BB07FF30BC3D8E29200021
:10031800BB01BC013C08BA003B08B9003C08803A64
:10032800F00080307002031D9B290B303B02031C38
:10033800A52920003B08F63EB700FF303C3DB80039
:1003480008002000B701B801080020003908A30000
:100358002308A1008030B52220003708A300230815
:10036800A1004030B52220003D03031DC7293B08EA
:100378003C04031DC7290230A3002308A100003054
:10038800B5222000BD013D08031D08003B083C04C0
:10039800031908000330A3002308A1000030B52288
:1003A8002000BD01BD0A080020003908F3007308C9
:1003B800F1008030C12220003708F3007308F100F3
:1003C8004030C12220003D03031DF6293B083C04B0
:1003D800031DF6290230F3007308F1000030C12232
:1003E8002000BD013D08031D08003B083C0403191B
:1003F80008000330F3007308F1000030C122200028
:10040800BD01BD0A0800283024009500960120008F
:100418002E08B2002F08B3003008B4003108B50028
:100428000230B235B30DB40DB50D890B152A350858
:10043800A3003408A2003308A1003208A00000304D
:10044800A7003D30A6000930A5000030A400BC205C
:1004580020002008FF3E240092008030940008000D
:100468002000A5002508A2000130A235FF3E031D8B
:10047800392A2235013821009D0007302000A200CA
:100488007D30890B452AA20B452A21009D149D1811
:100498004B2A1C082000A40021001B082000A300F0
:1004A8002408A1002308A00008009B220030200097
:1004B8008E1A0130BE003E08031D8B010030B100CA
:1004C8000130B0008630AF00A030AE0007227B229A
:1004D80020003E0803196C2A0F2182302000B60044
:1004E800DD30890B752AB60B752A00326C2A033069
:1004F8002000AA002A08A1000030B5222000BD0172
:10050800BD0A3E0803198A2A0F21992A16302000AD
:10051800BB000030BC003C08BA003B08B9003B08EF
:10052800F63EB700FF303C3DB800A9210800EA308C
:100538002100990027009101303092009301883002
:100548008B002100951795169515FF308C00FF300C
:100558008E0023008C0108308E00D03021009E00D0
:1005680008002000A200ED22F830CB22200021084C
:100578001F392204CB22E9220800F200F522F830C4
:10058800E32271081F397204E322F12208002000D7
:10059800A000D32220002008240091000800240095
:1005A8001419D32A16081F3903190800D32A24005E
:1005B8001419DB2A16081F3903190800DB2AF00072
:1005C800DB227008240091000800D32224001615AD
:1005D8000800D322240016140800DB222400161574
:0A05E8000800DB22240016140800AE
:020000040001F9
:04000E00E4FFFFFF0D
:00000001FF
